{
  "address": "0x8cA5867113299CBf1203dF160668a290690E6FC7",
  "abi": [
    {
      "inputs": [
        {
          "internalType": "address",
          "name": "_secondSigner",
          "type": "address"
        }
      ],
      "stateMutability": "nonpayable",
      "type": "constructor"
    },
    {
      "inputs": [],
      "name": "InvalidShortString",
      "type": "error"
    },
    {
      "inputs": [
        {
          "internalType": "string",
          "name": "str",
          "type": "string"
        }
      ],
      "name": "StringTooLong",
      "type": "error"
    },
    {
      "anonymous": false,
      "inputs": [
        {
          "indexed": true,
          "internalType": "address",
          "name": "user",
          "type": "address"
        },
        {
          "indexed": false,
          "internalType": "uint256",
          "name": "amount",
          "type": "uint256"
        }
      ],
      "name": "Deposit",
      "type": "event"
    },
    {
      "anonymous": false,
      "inputs": [],
      "name": "EIP712DomainChanged",
      "type": "event"
    },
    {
      "anonymous": false,
      "inputs": [
        {
          "indexed": true,
          "internalType": "address",
          "name": "from",
          "type": "address"
        },
        {
          "indexed": true,
          "internalType": "address",
          "name": "to",
          "type": "address"
        },
        {
          "indexed": false,
          "internalType": "uint256",
          "name": "amount",
          "type": "uint256"
        }
      ],
      "name": "TransferRequested",
      "type": "event"
    },
    {
      "inputs": [
        {
          "internalType": "address",
          "name": "_to",
          "type": "address"
        }
      ],
      "name": "deposit",
      "outputs": [],
      "stateMutability": "payable",
      "type": "function"
    },
    {
      "inputs": [],
      "name": "eip712Domain",
      "outputs": [
        {
          "internalType": "bytes1",
          "name": "fields",
          "type": "bytes1"
        },
        {
          "internalType": "string",
          "name": "name",
          "type": "string"
        },
        {
          "internalType": "string",
          "name": "version",
          "type": "string"
        },
        {
          "internalType": "uint256",
          "name": "chainId",
          "type": "uint256"
        },
        {
          "internalType": "address",
          "name": "verifyingContract",
          "type": "address"
        },
        {
          "internalType": "bytes32",
          "name": "salt",
          "type": "bytes32"
        },
        {
          "internalType": "uint256[]",
          "name": "extensions",
          "type": "uint256[]"
        }
      ],
      "stateMutability": "view",
      "type": "function"
    },
    {
      "inputs": [
        {
          "internalType": "address",
          "name": "_account",
          "type": "address"
        }
      ],
      "name": "getBalance",
      "outputs": [
        {
          "internalType": "uint256",
          "name": "",
          "type": "uint256"
        }
      ],
      "stateMutability": "view",
      "type": "function"
    },
    {
      "inputs": [
        {
          "internalType": "address",
          "name": "",
          "type": "address"
        }
      ],
      "name": "nonces",
      "outputs": [
        {
          "internalType": "uint256",
          "name": "",
          "type": "uint256"
        }
      ],
      "stateMutability": "view",
      "type": "function"
    },
    {
      "inputs": [],
      "name": "secondSigner",
      "outputs": [
        {
          "internalType": "address",
          "name": "",
          "type": "address"
        }
      ],
      "stateMutability": "view",
      "type": "function"
    },
    {
      "inputs": [
        {
          "internalType": "address",
          "name": "_to",
          "type": "address"
        },
        {
          "internalType": "uint256",
          "name": "_amount",
          "type": "uint256"
        },
        {
          "internalType": "uint256",
          "name": "_nonce",
          "type": "uint256"
        },
        {
          "internalType": "bytes",
          "name": "_signature",
          "type": "bytes"
        }
      ],
      "name": "transfer",
      "outputs": [],
      "stateMutability": "nonpayable",
      "type": "function"
    }
  ],
  "transactionHash": "0xb91604ab4dc18d4dd97102ca515814f87800fbf25581ea9a6ad30f94cb394940",
  "args": [
    "0xBE4B9051F06C2D676A203cc92a62f064615a7eaF"
  ],
  "numDeployments": 1,
  "solcInputHash": "33b8ea574570324b0f54e7f48d000d87",
  "bytecode": "0x6101606040523480156200001257600080fd5b50604051620014283803806200142883398101604081905262000035916200026b565b6040518060400160405280601081526020016f15195b1959dc985b509bdd15985d5b1d60821b815250604051806040016040528060018152602001603160f81b81525062000093600083620001d560201b620005ce1790919060201c565b61012052620000b0816001620001d5602090811b620005ce17901c565b61014052815160208084019190912060e052815190820120610100524660a0526200013e60e05161010051604080517f8b73c3c69bb8fe3d512ecc4cf759cc79239f7b179b0ffacaa9a75d522b39400f60208201529081019290925260608201524660808201523060a082015260009060c00160405160208183030381529060405280519060200120905090565b60805250503060c0526001600160a01b038116620001af5760405162461bcd60e51b8152602060048201526024808201527f5365636f6e64207369676e657220616464726573732063616e6e6f74206265206044820152637a65726f60e01b60648201526084015b60405180910390fd5b600480546001600160a01b0319166001600160a01b039290921691909117905562000483565b6000602083511015620001f557620001ed8362000225565b90506200021f565b826200020c836200026860201b620006011760201c565b9062000219908262000342565b5060ff90505b92915050565b600080829050601f8151111562000253578260405163305a27a960e01b8152600401620001a691906200040e565b805162000260826200045e565b179392505050565b90565b6000602082840312156200027e57600080fd5b81516001600160a01b03811681146200029657600080fd5b9392505050565b634e487b7160e01b600052604160045260246000fd5b600181811c90821680620002c857607f821691505b602082108103620002e957634e487b7160e01b600052602260045260246000fd5b50919050565b601f8211156200033d57600081815260208120601f850160051c81016020861015620003185750805b601f850160051c820191505b81811015620003395782815560010162000324565b5050505b505050565b81516001600160401b038111156200035e576200035e6200029d565b62000376816200036f8454620002b3565b84620002ef565b602080601f831160018114620003ae5760008415620003955750858301515b600019600386901b1c1916600185901b17855562000339565b600085815260208120601f198616915b82811015620003df57888601518255948401946001909101908401620003be565b5085821015620003fe5787850151600019600388901b60f8161c191681555b5050505050600190811b01905550565b600060208083528351808285015260005b818110156200043d578581018301518582016040015282016200041f565b506000604082860101526040601f19601f8301168501019250505092915050565b80516020808301519190811015620002e95760001960209190910360031b1b16919050565b60805160a05160c05160e051610100516101205161014051610f4a620004de600039600061019d01526000610173015260006108500152600061082801526000610783015260006107ad015260006107d70152610f4a6000f3fe6080604052600436106100555760003560e01c80637ecebe001461005a57806384b0196e1461009a57806395746db9146100c2578063dabd76e9146100fa578063f340fa011461011c578063f8b2cb4f1461012f575b600080fd5b34801561006657600080fd5b50610087610075366004610b40565b60036020526000908152604090205481565b6040519081526020015b60405180910390f35b3480156100a657600080fd5b506100af610165565b6040516100919796959493929190610ba8565b3480156100ce57600080fd5b506004546100e2906001600160a01b031681565b6040516001600160a01b039091168152602001610091565b34801561010657600080fd5b5061011a610115366004610c54565b6101ed565b005b61011a61012a366004610b40565b6104ff565b34801561013b57600080fd5b5061008761014a366004610b40565b6001600160a01b031660009081526002602052604090205490565b6000606080828080836101987f000000000000000000000000000000000000000000000000000000000000000083610604565b6101c37f00000000000000000000000000000000000000000000000000000000000000006001610604565b60408051600080825260208201909252600f60f81b9b939a50919850469750309650945092509050565b600083116102545760405162461bcd60e51b815260206004820152602960248201527f5472616e7366657220616d6f756e74206d7573742062652067726561746572206044820152687468616e207a65726f60b81b60648201526084015b60405180910390fd5b336000908152600260205260409020548311156102aa5760405162461bcd60e51b8152602060048201526014602482015273496e73756666696369656e742062616c616e636560601b604482015260640161024b565b3360009081526003602052604090205482146102f85760405162461bcd60e51b815260206004820152600d60248201526c496e76616c6964206e6f6e636560981b604482015260640161024b565b604080517f2cbaa21fb8997dd6e011e79e78dce540386c045e2555c3d16524fbdeea31e0c8602082015233918101919091526001600160a01b03851660608201526080810184905260a0810183905260009060c0016040516020818303038152906040528051906020012090506000610370826106a8565b9050600061037e82856106d5565b6004549091506001600160a01b038083169116146103de5760405162461bcd60e51b815260206004820152601f60248201527f496e76616c6964207365636f6e64207369676e6572207369676e617475726500604482015260640161024b565b3360009081526003602052604081208054916103f983610d3f565b9091555050336000908152600260205260408120805488929061041d908490610d58565b90915550506040516000906001600160a01b0389169088908381818185875af1925050503d806000811461046d576040519150601f19603f3d011682016040523d82523d6000602084013e610472565b606091505b50509050806104b55760405162461bcd60e51b815260206004820152600f60248201526e151c985b9cd9995c8819985a5b1959608a1b604482015260640161024b565b6040518781526001600160a01b0389169033907f68d8b242061749353081922c3f317f3f4eb148ef7afa77145efa32e9b3c7b9369060200160405180910390a35050505050505050565b600034116105605760405162461bcd60e51b815260206004820152602860248201527f4465706f73697420616d6f756e74206d7573742062652067726561746572207460448201526768616e207a65726f60c01b606482015260840161024b565b6001600160a01b03811660009081526002602052604081208054349290610588908490610d6b565b90915550506040513481526001600160a01b038216907fe1fffcc4923d04b559f4d29a8bfc6cda04eb5b0d3c460751c2402c5c5cc9109c9060200160405180910390a250565b60006020835110156105ea576105e3836106f9565b90506105fb565b816105f58482610e07565b5060ff90505b92915050565b90565b606060ff8314610617576105e383610737565b81805461062390610d7e565b80601f016020809104026020016040519081016040528092919081815260200182805461064f90610d7e565b801561069c5780601f106106715761010080835404028352916020019161069c565b820191906000526020600020905b81548152906001019060200180831161067f57829003601f168201915b505050505090506105fb565b60006105fb6106b5610776565b8360405161190160f01b8152600281019290925260228201526042902090565b60008060006106e485856108a6565b915091506106f1816108eb565b509392505050565b600080829050601f81511115610724578260405163305a27a960e01b815260040161024b9190610ec7565b805161072f82610eda565b179392505050565b6060600061074483610a38565b604080516020808252818301909252919250600091906020820181803683375050509182525060208101929092525090565b6000306001600160a01b037f0000000000000000000000000000000000000000000000000000000000000000161480156107cf57507f000000000000000000000000000000000000000000000000000000000000000046145b156107f957507f000000000000000000000000000000000000000000000000000000000000000090565b6108a1604080517f8b73c3c69bb8fe3d512ecc4cf759cc79239f7b179b0ffacaa9a75d522b39400f60208201527f0000000000000000000000000000000000000000000000000000000000000000918101919091527f000000000000000000000000000000000000000000000000000000000000000060608201524660808201523060a082015260009060c00160405160208183030381529060405280519060200120905090565b905090565b60008082516041036108dc5760208301516040840151606085015160001a6108d087828585610a60565b945094505050506108e4565b506000905060025b9250929050565b60008160048111156108ff576108ff610efe565b036109075750565b600181600481111561091b5761091b610efe565b036109685760405162461bcd60e51b815260206004820152601860248201527f45434453413a20696e76616c6964207369676e61747572650000000000000000604482015260640161024b565b600281600481111561097c5761097c610efe565b036109c95760405162461bcd60e51b815260206004820152601f60248201527f45434453413a20696e76616c6964207369676e6174757265206c656e67746800604482015260640161024b565b60038160048111156109dd576109dd610efe565b03610a355760405162461bcd60e51b815260206004820152602260248201527f45434453413a20696e76616c6964207369676e6174757265202773272076616c604482015261756560f01b606482015260840161024b565b50565b600060ff8216601f8111156105fb57604051632cd44ac360e21b815260040160405180910390fd5b6000807f7fffffffffffffffffffffffffffffff5d576e7357a4501ddfe92f46681b20a0831115610a975750600090506003610b1b565b6040805160008082526020820180845289905260ff881692820192909252606081018690526080810185905260019060a0016020604051602081039080840390855afa158015610aeb573d6000803e3d6000fd5b5050604051601f1901519150506001600160a01b038116610b1457600060019250925050610b1b565b9150600090505b94509492505050565b80356001600160a01b0381168114610b3b57600080fd5b919050565b600060208284031215610b5257600080fd5b610b5b82610b24565b9392505050565b6000815180845260005b81811015610b8857602081850181015186830182015201610b6c565b506000602082860101526020601f19601f83011685010191505092915050565b60ff60f81b881681526000602060e081840152610bc860e084018a610b62565b8381036040850152610bda818a610b62565b606085018990526001600160a01b038816608086015260a0850187905284810360c0860152855180825283870192509083019060005b81811015610c2c57835183529284019291840191600101610c10565b50909c9b505050505050505050505050565b634e487b7160e01b600052604160045260246000fd5b60008060008060808587031215610c6a57600080fd5b610c7385610b24565b93506020850135925060408501359150606085013567ffffffffffffffff80821115610c9e57600080fd5b818701915087601f830112610cb257600080fd5b813581811115610cc457610cc4610c3e565b604051601f8201601f19908116603f01168101908382118183101715610cec57610cec610c3e565b816040528281528a6020848701011115610d0557600080fd5b82602086016020830137600060208483010152809550505050505092959194509250565b634e487b7160e01b600052601160045260246000fd5b600060018201610d5157610d51610d29565b5060010190565b818103818111156105fb576105fb610d29565b808201808211156105fb576105fb610d29565b600181811c90821680610d9257607f821691505b602082108103610db257634e487b7160e01b600052602260045260246000fd5b50919050565b601f821115610e0257600081815260208120601f850160051c81016020861015610ddf5750805b601f850160051c820191505b81811015610dfe57828155600101610deb565b5050505b505050565b815167ffffffffffffffff811115610e2157610e21610c3e565b610e3581610e2f8454610d7e565b84610db8565b602080601f831160018114610e6a5760008415610e525750858301515b600019600386901b1c1916600185901b178555610dfe565b600085815260208120601f198616915b82811015610e9957888601518255948401946001909101908401610e7a565b5085821015610eb75787850151600019600388901b60f8161c191681555b5050505050600190811b01905550565b602081526000610b5b6020830184610b62565b80516020808301519190811015610db25760001960209190910360031b1b16919050565b634e487b7160e01b600052602160045260246000fdfea2646970667358221220008147550fae46dec88f5b96618eaf8a42b7ec3d98456db22eabc91e797696b164736f6c63430008110033",
  "devdoc": {
    "kind": "dev",
    "methods": {
      "eip712Domain()": {
        "details": "See {EIP-5267}. _Available since v4.9._"
      }
    },
    "version": 1
  },
  "userdoc": {
    "kind": "user",
    "methods": {},
    "version": 1
  },
  "storageLayout": {
    "storage": [
      {
        "astId": 978,
        "contract": "contracts/TelegramBotVault.sol:TelegramBotVault",
        "label": "_nameFallback",
        "offset": 0,
        "slot": "0",
        "type": "t_string_storage"
      },
      {
        "astId": 980,
        "contract": "contracts/TelegramBotVault.sol:TelegramBotVault",
        "label": "_versionFallback",
        "offset": 0,
        "slot": "1",
        "type": "t_string_storage"
      },
      {
        "astId": 2133,
        "contract": "contracts/TelegramBotVault.sol:TelegramBotVault",
        "label": "balances",
        "offset": 0,
        "slot": "2",
        "type": "t_mapping(t_address,t_uint256)"
      },
      {
        "astId": 2137,
        "contract": "contracts/TelegramBotVault.sol:TelegramBotVault",
        "label": "nonces",
        "offset": 0,
        "slot": "3",
        "type": "t_mapping(t_address,t_uint256)"
      },
      {
        "astId": 2139,
        "contract": "contracts/TelegramBotVault.sol:TelegramBotVault",
        "label": "secondSigner",
        "offset": 0,
        "slot": "4",
        "type": "t_address"
      }
    ],
    "types": {
      "t_address": {
        "encoding": "inplace",
        "label": "address",
        "numberOfBytes": "20"
      },
      "t_mapping(t_address,t_uint256)": {
        "encoding": "mapping",
        "key": "t_address",
        "label": "mapping(address => uint256)",
        "numberOfBytes": "32",
        "value": "t_uint256"
      },
      "t_string_storage": {
        "encoding": "bytes",
        "label": "string",
        "numberOfBytes": "32"
      },
      "t_uint256": {
        "encoding": "inplace",
        "label": "uint256",
        "numberOfBytes": "32"
      }
    }
  }
}